:020000040000FA
:1000000083018B018A01EE28A000030E8301A10069
:100010000B191628B3308100250882072B283028B9
:10002000232822282F28222850289928B3308100FD
:1000300025088207232822283428322838284C28EB
:1000400022282228A50105080B100B11210E830080
:10005000A00E200E09001630A700A50A2328A5141B
:10006000A70B2328A50A23282B30A600A401472884
:10007000A50AA70B2328A61D22280408A2002608EB
:10008000840023088000A406A60A22088400093000
:10009000A7000330A50023280310A30DA5032328E0
:1000A0000314A30DA510232882070134023404345D
:1000B00008341034203440348034310ED900590CC7
:1000C0000739820708003C295229452975297D29CD
:1000D0008B292A29400882078D288D288D288D2874
:1000E00008000800080008000800080008000800D0
:1000F000FF30C000C20B83283130DC193230E023DE
:10010000C2000830DC06C30B080033305C1A343000
:10011000E023C3001030DC060800203EE02307394E
:1001200082071E2B342B2F2B292B852B8C2B932BCB
:100130009A2B2308A406031D2228051DA2285C145F
:10014000DC10A4285C10DC14A8012B080319E62895
:10015000F039703A0319CE28DB135B122B08AB1F62
:10016000D31ABD285006031D22282C08B1002D08E3
:10017000B2002E08B3005B1422285106AB1B031DEE
:1001800022282C085206D31A031D22282D08B1005C
:100190002E08B2002F08B3005B142228DB1FE328CF
:1001A0005B1FE1285B135B16DB1126082D3A031D4C
:1001B000DB152B08B1002C08B2002D08B3005B142E
:1001C00022285B172228DB135B132228DB135B1228
:1001D0002C08031DB528DB175B1322288501073087
:1001E0009900831604308500FF239000333095007A
:1001F000043096009901883081008C0183128C01B3
:1002000001309000203084008001840A60300406B0
:10021000031D042988308B00C23EDE00AA01BD3ECA
:10022000C200C300C10AE6235C225B182621882293
:10023000DB1F0C1C15298F300E30FD308F000C1089
:1002400070225319A80B1529542115295B105B1A2C
:1002500098295D285B1F3A295B133308DE00EC30D8
:100260003106031D080032080C22DB1808005B1958
:10027000ED29E4295B17080031083F3A031D080007
:1002800032085318803AB400080080304121310808
:100290001F39D31C0F39B404D31808003512311A92
:1002A0003516080000304629A8168230051D023098
:1002B00041210C30E023D9000F39B500590E0F3918
:1002C000B6000D30E023D900B41B591C682935163F
:1002D000B41FD91C6C293516D90D590DF039B60447
:1002E000B701B8015C10DC100800D3184E21F030C3
:1002F000B50531080F39B5040800311E8529F030E5
:10030000B60531080F39B60408000F30B605310EB6
:10031000F039B60408003108DE3A031D922932088C
:10032000B7000800013A031D08003208B8000800B1
:10033000DB19D3293208DE003108F739753A031981
:10034000B529013A0319B329023A0319BF29013A21
:100350000319C129310803392A070C22DB180800C8
:10036000B11DC329E4291C30B029B203B20D320DEE
:10037000FC39B11DBD29AA0008002A06C52906308E
:10038000B0293208EE29E0233206031D080033307D
:1003900085000630D9000030FF3E031DCC29D90B63
:1003A000CC29850108003308DE00B11C3118080093
:1003B00032080C22DB180800B119E029311D0800B1
:1003C000311DF229B11DEA295B19ED29E623C72168
:1003D0005C220800E0233306C5293308213A031DB7
:1003E0000800232AE023DE005E3084000730330556
:1003F0005420331E032AB3198004FF3AB31D80052D
:1004000032080C22E42900050319092AB319C72967
:100410000800B31DC7290800DB105B11D900D91FE4
:10042000591B1A2A063A03195B15013A03195B1581
:1004300059080800893E031CDB14C03E0318DB1476
:10044000403E403E08000F30DE002430DF00043024
:100450006922C030DE001030E623DE0E3130DF00CE
:10046000043069226430DE001130E6230630DE00FD
:100470001C30E6230830DE004430DF000230692201
:10048000DE010C30E6232030DF00043069224630E4
:10049000DF003A306922DE0A4030E623DE0A4130CE
:1004A000E623DE0A0030E6230D30E623DE0A423082
:1004B000DF0002306922C7210030E023D000103075
:1004C000E023D1001130E023D2001C30E023D30020
:1004D0000800DA005F08E623DF0ADA0B6A2A080060
:1004E0001030C107D90141083C07031859144108CD
:1004F0003D070318D91441083E070318591641084F
:100500003F070318D916590885006A20C00A080059
:10051000DA01B901351A0923DA0A35180923DA0A8A
:10052000B5180923DA0A35190923DA0AB519092396
:10053000DA0A36180923DA0AB6180923DA0A36194C
:100540000923DA0AB6190923DA0A361A0923DA0A5C
:10055000B61A0923DA0A361B0923DA0AB61B09235D
:10056000DA0A37180923DA0AB7180923DA0A371919
:100570000923DA0AB7190923DA0A371A0923DA0A2A
:10058000B71A0923DA0A371B0923DA0AB71B09232A
:10059000DA0A38180923DA0AB8180923DA0A3819E6
:1005A0000923DA0AB8190923DA0A381A0923DA0AF8
:1005B000B81A0923DA0A381B0923DA0AB81B0923F7
:1005C000DA0A34087E39031DDA0A09235C187E3002
:1005D000DC187F305C1CDC180E233908BA063A1C84
:1005E000F52A391C44173918C417BA1CFB2AB91C40
:1005F0004517B918C5173A1D012B391D461739196A
:10060000C617BA1D072BB91D4717B919C717BA0066
:1006100008000310B41F03145A0D403EE023B90430
:100620000800B523801B1030001B0030800008003C
:10063000B523001B003080000F3908001123003063
:10064000001AA123D90040083C3E840059088000CC
:1006500008001823031D3C2B00168016372B182387
:10066000031D3C2B0016372B1823031D3C2B003099
:10067000801F222B0130BE23013A031D482BBA23D1
:10068000A8230739033EC8230A30D423A123222BF1
:10069000033A031D632BDB23800B0800CF23800B61
:1006A000542BBA23A123222B40083C3E8400A123D3
:1006B0008006031D5F2BA8231F39143ED42BA823CB
:1006C0000739063ED42B013A031D732B001E462B1F
:1006D000A8230739033ED4233030C823BA23801E11
:1006E000462B1030222BCF23800B08003030C8233C
:1006F000DB23800B08000230BE23A8230739053E08
:10070000C8230A30D4230030222B11230030001AD2
:10071000DC1D222BA123222B11230030001ADC190F
:10072000222BA123222B11230030001A5C1E222B26
:10073000A123222B11230030001A5C1A222BA123A3
:10074000222B4008243EE023DE005E0E0F38080016
:100750003B080319010803193B0AD900D90CD90E2B
:10076000D906D90C3B0CBB0008004008443E84006D
:10077000000808004008443E8400000A0F39D900F0
:100780004008443E8400F030800559088004080089
:10079000D9004008483E84005908800008004008FD
:1007A000483E840000080800D90040084C3E840000
:1007B00059088000080040084C3E840000080800EA
:1007C00083169B001C141A0883120800E0235E069F
:1007D000031908005E0883169A001C158B13553008
:1007E0009D00AA309D009C148B171C119C18F62BA1
:0407F0008312080068
:02400E00C43FAD
:104200000300FF00FF00FF00FF00FF001E000D0085
:10421000FF00FF00FF00FF0000000300FF00FF00A1
:10422000C0006400FF00FF00FF00FF00FF00FF0070
:10423000FF00FF00FF00FF000600FF00FF00FF007F
:1042400000000000000000000F000F000F000F0032
:10425000FF00FF00FF00FF00FF00FF00FF00FF0066
:10426000FF000C000C000C000C00FF00FF00FF0022
:10427000FF00FF00FF00FF00FF00FF00FF00FF0046
:104280000100020004000400080008000000000013
:10429000000000000000000000000000000000001E
:1042A000000000000000000000000000000000000E
:1042B00000000000000000000000000000000000FE
:1042C00000000000000000000000000000000000EE
:1042D00000000000000000000000000000000000DE
:1042E00000000000000000000000000000000000CE
:1042F00000000000000000000000000000000000BE
:00000001FF
